{
  "_format": "hh-sol-artifact-1",
  "contractName": "AVAXGods",
  "sourceName": "contracts/AvaxGods.sol",
  "abi": [
    {
      "inputs": [
        {
          "internalType": "string",
          "name": "_metadataURI",
          "type": "string"
        }
      ],
      "stateMutability": "nonpayable",
      "type": "constructor"
    },
    {
      "anonymous": false,
      "inputs": [
        {
          "indexed": true,
          "internalType": "address",
          "name": "account",
          "type": "address"
        },
        {
          "indexed": true,
          "internalType": "address",
          "name": "operator",
          "type": "address"
        },
        {
          "indexed": false,
          "internalType": "bool",
          "name": "approved",
          "type": "bool"
        }
      ],
      "name": "ApprovalForAll",
      "type": "event"
    },
    {
      "anonymous": false,
      "inputs": [
        {
          "indexed": false,
          "internalType": "string",
          "name": "battleName",
          "type": "string"
        },
        {
          "indexed": true,
          "internalType": "address",
          "name": "winner",
          "type": "address"
        },
        {
          "indexed": true,
          "internalType": "address",
          "name": "loser",
          "type": "address"
        }
      ],
      "name": "BattleEnded",
      "type": "event"
    },
    {
      "anonymous": false,
      "inputs": [
        {
          "indexed": true,
          "internalType": "string",
          "name": "battleName",
          "type": "string"
        },
        {
          "indexed": true,
          "internalType": "bool",
          "name": "isFirstMove",
          "type": "bool"
        }
      ],
      "name": "BattleMove",
      "type": "event"
    },
    {
      "anonymous": false,
      "inputs": [
        {
          "indexed": false,
          "internalType": "string",
          "name": "battleName",
          "type": "string"
        },
        {
          "indexed": true,
          "internalType": "address",
          "name": "player1",
          "type": "address"
        },
        {
          "indexed": true,
          "internalType": "address",
          "name": "player2",
          "type": "address"
        }
      ],
      "name": "NewBattle",
      "type": "event"
    },
    {
      "anonymous": false,
      "inputs": [
        {
          "indexed": true,
          "internalType": "address",
          "name": "owner",
          "type": "address"
        },
        {
          "indexed": false,
          "internalType": "uint256",
          "name": "id",
          "type": "uint256"
        },
        {
          "indexed": false,
          "internalType": "uint256",
          "name": "attackStrength",
          "type": "uint256"
        },
        {
          "indexed": false,
          "internalType": "uint256",
          "name": "defenseStrength",
          "type": "uint256"
        }
      ],
      "name": "NewGameToken",
      "type": "event"
    },
    {
      "anonymous": false,
      "inputs": [
        {
          "indexed": true,
          "internalType": "address",
          "name": "owner",
          "type": "address"
        },
        {
          "indexed": false,
          "internalType": "string",
          "name": "name",
          "type": "string"
        }
      ],
      "name": "NewPlayer",
      "type": "event"
    },
    {
      "anonymous": false,
      "inputs": [
        {
          "indexed": true,
          "internalType": "address",
          "name": "previousOwner",
          "type": "address"
        },
        {
          "indexed": true,
          "internalType": "address",
          "name": "newOwner",
          "type": "address"
        }
      ],
      "name": "OwnershipTransferred",
      "type": "event"
    },
    {
      "anonymous": false,
      "inputs": [
        {
          "indexed": false,
          "internalType": "address[2]",
          "name": "damagedPlayers",
          "type": "address[2]"
        }
      ],
      "name": "RoundEnded",
      "type": "event"
    },
    {
      "anonymous": false,
      "inputs": [
        {
          "indexed": true,
          "internalType": "address",
          "name": "operator",
          "type": "address"
        },
        {
          "indexed": true,
          "internalType": "address",
          "name": "from",
          "type": "address"
        },
        {
          "indexed": true,
          "internalType": "address",
          "name": "to",
          "type": "address"
        },
        {
          "indexed": false,
          "internalType": "uint256[]",
          "name": "ids",
          "type": "uint256[]"
        },
        {
          "indexed": false,
          "internalType": "uint256[]",
          "name": "values",
          "type": "uint256[]"
        }
      ],
      "name": "TransferBatch",
      "type": "event"
    },
    {
      "anonymous": false,
      "inputs": [
        {
          "indexed": true,
          "internalType": "address",
          "name": "operator",
          "type": "address"
        },
        {
          "indexed": true,
          "internalType": "address",
          "name": "from",
          "type": "address"
        },
        {
          "indexed": true,
          "internalType": "address",
          "name": "to",
          "type": "address"
        },
        {
          "indexed": false,
          "internalType": "uint256",
          "name": "id",
          "type": "uint256"
        },
        {
          "indexed": false,
          "internalType": "uint256",
          "name": "value",
          "type": "uint256"
        }
      ],
      "name": "TransferSingle",
      "type": "event"
    },
    {
      "anonymous": false,
      "inputs": [
        {
          "indexed": false,
          "internalType": "string",
          "name": "value",
          "type": "string"
        },
        {
          "indexed": true,
          "internalType": "uint256",
          "name": "id",
          "type": "uint256"
        }
      ],
      "name": "URI",
      "type": "event"
    },
    {
      "inputs": [],
      "name": "CELESTION",
      "outputs": [
        {
          "internalType": "uint256",
          "name": "",
          "type": "uint256"
        }
      ],
      "stateMutability": "view",
      "type": "function"
    },
    {
      "inputs": [],
      "name": "DEVIL",
      "outputs": [
        {
          "internalType": "uint256",
          "name": "",
          "type": "uint256"
        }
      ],
      "stateMutability": "view",
      "type": "function"
    },
    {
      "inputs": [],
      "name": "FIREBIRD",
      "outputs": [
        {
          "internalType": "uint256",
          "name": "",
          "type": "uint256"
        }
      ],
      "stateMutability": "view",
      "type": "function"
    },
    {
      "inputs": [],
      "name": "GRIFFIN",
      "outputs": [
        {
          "internalType": "uint256",
          "name": "",
          "type": "uint256"
        }
      ],
      "stateMutability": "view",
      "type": "function"
    },
    {
      "inputs": [],
      "name": "KAMO",
      "outputs": [
        {
          "internalType": "uint256",
          "name": "",
          "type": "uint256"
        }
      ],
      "stateMutability": "view",
      "type": "function"
    },
    {
      "inputs": [],
      "name": "KUKULKAN",
      "outputs": [
        {
          "internalType": "uint256",
          "name": "",
          "type": "uint256"
        }
      ],
      "stateMutability": "view",
      "type": "function"
    },
    {
      "inputs": [],
      "name": "MAX_ATTACK_DEFEND_STRENGTH",
      "outputs": [
        {
          "internalType": "uint256",
          "name": "",
          "type": "uint256"
        }
      ],
      "stateMutability": "view",
      "type": "function"
    },
    {
      "inputs": [
        {
          "internalType": "uint8",
          "name": "_choice",
          "type": "uint8"
        },
        {
          "internalType": "string",
          "name": "_battleName",
          "type": "string"
        }
      ],
      "name": "attackOrDefendChoice",
      "outputs": [],
      "stateMutability": "nonpayable",
      "type": "function"
    },
    {
      "inputs": [
        {
          "internalType": "address",
          "name": "account",
          "type": "address"
        },
        {
          "internalType": "uint256",
          "name": "id",
          "type": "uint256"
        }
      ],
      "name": "balanceOf",
      "outputs": [
        {
          "internalType": "uint256",
          "name": "",
          "type": "uint256"
        }
      ],
      "stateMutability": "view",
      "type": "function"
    },
    {
      "inputs": [
        {
          "internalType": "address[]",
          "name": "accounts",
          "type": "address[]"
        },
        {
          "internalType": "uint256[]",
          "name": "ids",
          "type": "uint256[]"
        }
      ],
      "name": "balanceOfBatch",
      "outputs": [
        {
          "internalType": "uint256[]",
          "name": "",
          "type": "uint256[]"
        }
      ],
      "stateMutability": "view",
      "type": "function"
    },
    {
      "inputs": [],
      "name": "baseURI",
      "outputs": [
        {
          "internalType": "string",
          "name": "",
          "type": "string"
        }
      ],
      "stateMutability": "view",
      "type": "function"
    },
    {
      "inputs": [
        {
          "internalType": "string",
          "name": "",
          "type": "string"
        }
      ],
      "name": "battleInfo",
      "outputs": [
        {
          "internalType": "uint256",
          "name": "",
          "type": "uint256"
        }
      ],
      "stateMutability": "view",
      "type": "function"
    },
    {
      "inputs": [
        {
          "internalType": "uint256",
          "name": "",
          "type": "uint256"
        }
      ],
      "name": "battles",
      "outputs": [
        {
          "internalType": "enum AVAXGods.BattleStatus",
          "name": "battleStatus",
          "type": "uint8"
        },
        {
          "internalType": "bytes32",
          "name": "battleHash",
          "type": "bytes32"
        },
        {
          "internalType": "string",
          "name": "name",
          "type": "string"
        },
        {
          "internalType": "address",
          "name": "winner",
          "type": "address"
        }
      ],
      "stateMutability": "view",
      "type": "function"
    },
    {
      "inputs": [
        {
          "internalType": "string",
          "name": "_name",
          "type": "string"
        }
      ],
      "name": "createBattle",
      "outputs": [
        {
          "components": [
            {
              "internalType": "enum AVAXGods.BattleStatus",
              "name": "battleStatus",
              "type": "uint8"
            },
            {
              "internalType": "bytes32",
              "name": "battleHash",
              "type": "bytes32"
            },
            {
              "internalType": "string",
              "name": "name",
              "type": "string"
            },
            {
              "internalType": "address[2]",
              "name": "players",
              "type": "address[2]"
            },
            {
              "internalType": "uint8[2]",
              "name": "moves",
              "type": "uint8[2]"
            },
            {
              "internalType": "address",
              "name": "winner",
              "type": "address"
            }
          ],
          "internalType": "struct AVAXGods.Battle",
          "name": "",
          "type": "tuple"
        }
      ],
      "stateMutability": "nonpayable",
      "type": "function"
    },
    {
      "inputs": [
        {
          "internalType": "string",
          "name": "_name",
          "type": "string"
        }
      ],
      "name": "createRandomGameToken",
      "outputs": [],
      "stateMutability": "nonpayable",
      "type": "function"
    },
    {
      "inputs": [
        {
          "internalType": "uint256",
          "name": "id",
          "type": "uint256"
        }
      ],
      "name": "exists",
      "outputs": [
        {
          "internalType": "bool",
          "name": "",
          "type": "bool"
        }
      ],
      "stateMutability": "view",
      "type": "function"
    },
    {
      "inputs": [
        {
          "internalType": "uint256",
          "name": "",
          "type": "uint256"
        }
      ],
      "name": "gameTokens",
      "outputs": [
        {
          "internalType": "string",
          "name": "name",
          "type": "string"
        },
        {
          "internalType": "uint256",
          "name": "id",
          "type": "uint256"
        },
        {
          "internalType": "uint256",
          "name": "attackStrength",
          "type": "uint256"
        },
        {
          "internalType": "uint256",
          "name": "defenseStrength",
          "type": "uint256"
        }
      ],
      "stateMutability": "view",
      "type": "function"
    },
    {
      "inputs": [],
      "name": "getAllBattles",
      "outputs": [
        {
          "components": [
            {
              "internalType": "enum AVAXGods.BattleStatus",
              "name": "battleStatus",
              "type": "uint8"
            },
            {
              "internalType": "bytes32",
              "name": "battleHash",
              "type": "bytes32"
            },
            {
              "internalType": "string",
              "name": "name",
              "type": "string"
            },
            {
              "internalType": "address[2]",
              "name": "players",
              "type": "address[2]"
            },
            {
              "internalType": "uint8[2]",
              "name": "moves",
              "type": "uint8[2]"
            },
            {
              "internalType": "address",
              "name": "winner",
              "type": "address"
            }
          ],
          "internalType": "struct AVAXGods.Battle[]",
          "name": "",
          "type": "tuple[]"
        }
      ],
      "stateMutability": "view",
      "type": "function"
    },
    {
      "inputs": [],
      "name": "getAllPlayerTokens",
      "outputs": [
        {
          "components": [
            {
              "internalType": "string",
              "name": "name",
              "type": "string"
            },
            {
              "internalType": "uint256",
              "name": "id",
              "type": "uint256"
            },
            {
              "internalType": "uint256",
              "name": "attackStrength",
              "type": "uint256"
            },
            {
              "internalType": "uint256",
              "name": "defenseStrength",
              "type": "uint256"
            }
          ],
          "internalType": "struct AVAXGods.GameToken[]",
          "name": "",
          "type": "tuple[]"
        }
      ],
      "stateMutability": "view",
      "type": "function"
    },
    {
      "inputs": [],
      "name": "getAllPlayers",
      "outputs": [
        {
          "components": [
            {
              "internalType": "address",
              "name": "playerAddress",
              "type": "address"
            },
            {
              "internalType": "string",
              "name": "playerName",
              "type": "string"
            },
            {
              "internalType": "uint256",
              "name": "playerMana",
              "type": "uint256"
            },
            {
              "internalType": "uint256",
              "name": "playerHealth",
              "type": "uint256"
            },
            {
              "internalType": "bool",
              "name": "inBattle",
              "type": "bool"
            }
          ],
          "internalType": "struct AVAXGods.Player[]",
          "name": "",
          "type": "tuple[]"
        }
      ],
      "stateMutability": "view",
      "type": "function"
    },
    {
      "inputs": [
        {
          "internalType": "string",
          "name": "_name",
          "type": "string"
        }
      ],
      "name": "getBattle",
      "outputs": [
        {
          "components": [
            {
              "internalType": "enum AVAXGods.BattleStatus",
              "name": "battleStatus",
              "type": "uint8"
            },
            {
              "internalType": "bytes32",
              "name": "battleHash",
              "type": "bytes32"
            },
            {
              "internalType": "string",
              "name": "name",
              "type": "string"
            },
            {
              "internalType": "address[2]",
              "name": "players",
              "type": "address[2]"
            },
            {
              "internalType": "uint8[2]",
              "name": "moves",
              "type": "uint8[2]"
            },
            {
              "internalType": "address",
              "name": "winner",
              "type": "address"
            }
          ],
          "internalType": "struct AVAXGods.Battle",
          "name": "",
          "type": "tuple"
        }
      ],
      "stateMutability": "view",
      "type": "function"
    },
    {
      "inputs": [
        {
          "internalType": "string",
          "name": "_battleName",
          "type": "string"
        }
      ],
      "name": "getBattleMoves",
      "outputs": [
        {
          "internalType": "uint256",
          "name": "P1Move",
          "type": "uint256"
        },
        {
          "internalType": "uint256",
          "name": "P2Move",
          "type": "uint256"
        }
      ],
      "stateMutability": "view",
      "type": "function"
    },
    {
      "inputs": [
        {
          "internalType": "address",
          "name": "addr",
          "type": "address"
        }
      ],
      "name": "getPlayer",
      "outputs": [
        {
          "components": [
            {
              "internalType": "address",
              "name": "playerAddress",
              "type": "address"
            },
            {
              "internalType": "string",
              "name": "playerName",
              "type": "string"
            },
            {
              "internalType": "uint256",
              "name": "playerMana",
              "type": "uint256"
            },
            {
              "internalType": "uint256",
              "name": "playerHealth",
              "type": "uint256"
            },
            {
              "internalType": "bool",
              "name": "inBattle",
              "type": "bool"
            }
          ],
          "internalType": "struct AVAXGods.Player",
          "name": "",
          "type": "tuple"
        }
      ],
      "stateMutability": "view",
      "type": "function"
    },
    {
      "inputs": [
        {
          "internalType": "address",
          "name": "addr",
          "type": "address"
        }
      ],
      "name": "getPlayerToken",
      "outputs": [
        {
          "components": [
            {
              "internalType": "string",
              "name": "name",
              "type": "string"
            },
            {
              "internalType": "uint256",
              "name": "id",
              "type": "uint256"
            },
            {
              "internalType": "uint256",
              "name": "attackStrength",
              "type": "uint256"
            },
            {
              "internalType": "uint256",
              "name": "defenseStrength",
              "type": "uint256"
            }
          ],
          "internalType": "struct AVAXGods.GameToken",
          "name": "",
          "type": "tuple"
        }
      ],
      "stateMutability": "view",
      "type": "function"
    },
    {
      "inputs": [],
      "name": "getTotalSupply",
      "outputs": [
        {
          "internalType": "uint256",
          "name": "",
          "type": "uint256"
        }
      ],
      "stateMutability": "view",
      "type": "function"
    },
    {
      "inputs": [
        {
          "internalType": "address",
          "name": "account",
          "type": "address"
        },
        {
          "internalType": "address",
          "name": "operator",
          "type": "address"
        }
      ],
      "name": "isApprovedForAll",
      "outputs": [
        {
          "internalType": "bool",
          "name": "",
          "type": "bool"
        }
      ],
      "stateMutability": "view",
      "type": "function"
    },
    {
      "inputs": [
        {
          "internalType": "string",
          "name": "_name",
          "type": "string"
        }
      ],
      "name": "isBattle",
      "outputs": [
        {
          "internalType": "bool",
          "name": "",
          "type": "bool"
        }
      ],
      "stateMutability": "view",
      "type": "function"
    },
    {
      "inputs": [
        {
          "internalType": "address",
          "name": "addr",
          "type": "address"
        }
      ],
      "name": "isPlayer",
      "outputs": [
        {
          "internalType": "bool",
          "name": "",
          "type": "bool"
        }
      ],
      "stateMutability": "view",
      "type": "function"
    },
    {
      "inputs": [
        {
          "internalType": "address",
          "name": "addr",
          "type": "address"
        }
      ],
      "name": "isPlayerToken",
      "outputs": [
        {
          "internalType": "bool",
          "name": "",
          "type": "bool"
        }
      ],
      "stateMutability": "view",
      "type": "function"
    },
    {
      "inputs": [
        {
          "internalType": "string",
          "name": "_name",
          "type": "string"
        }
      ],
      "name": "joinBattle",
      "outputs": [
        {
          "components": [
            {
              "internalType": "enum AVAXGods.BattleStatus",
              "name": "battleStatus",
              "type": "uint8"
            },
            {
              "internalType": "bytes32",
              "name": "battleHash",
              "type": "bytes32"
            },
            {
              "internalType": "string",
              "name": "name",
              "type": "string"
            },
            {
              "internalType": "address[2]",
              "name": "players",
              "type": "address[2]"
            },
            {
              "internalType": "uint8[2]",
              "name": "moves",
              "type": "uint8[2]"
            },
            {
              "internalType": "address",
              "name": "winner",
              "type": "address"
            }
          ],
          "internalType": "struct AVAXGods.Battle",
          "name": "",
          "type": "tuple"
        }
      ],
      "stateMutability": "nonpayable",
      "type": "function"
    },
    {
      "inputs": [],
      "name": "owner",
      "outputs": [
        {
          "internalType": "address",
          "name": "",
          "type": "address"
        }
      ],
      "stateMutability": "view",
      "type": "function"
    },
    {
      "inputs": [
        {
          "internalType": "address",
          "name": "",
          "type": "address"
        }
      ],
      "name": "playerInfo",
      "outputs": [
        {
          "internalType": "uint256",
          "name": "",
          "type": "uint256"
        }
      ],
      "stateMutability": "view",
      "type": "function"
    },
    {
      "inputs": [
        {
          "internalType": "address",
          "name": "",
          "type": "address"
        }
      ],
      "name": "playerTokenInfo",
      "outputs": [
        {
          "internalType": "uint256",
          "name": "",
          "type": "uint256"
        }
      ],
      "stateMutability": "view",
      "type": "function"
    },
    {
      "inputs": [
        {
          "internalType": "uint256",
          "name": "",
          "type": "uint256"
        }
      ],
      "name": "players",
      "outputs": [
        {
          "internalType": "address",
          "name": "playerAddress",
          "type": "address"
        },
        {
          "internalType": "string",
          "name": "playerName",
          "type": "string"
        },
        {
          "internalType": "uint256",
          "name": "playerMana",
          "type": "uint256"
        },
        {
          "internalType": "uint256",
          "name": "playerHealth",
          "type": "uint256"
        },
        {
          "internalType": "bool",
          "name": "inBattle",
          "type": "bool"
        }
      ],
      "stateMutability": "view",
      "type": "function"
    },
    {
      "inputs": [
        {
          "internalType": "string",
          "name": "_battleName",
          "type": "string"
        }
      ],
      "name": "quitBattle",
      "outputs": [],
      "stateMutability": "nonpayable",
      "type": "function"
    },
    {
      "inputs": [
        {
          "internalType": "string",
          "name": "_name",
          "type": "string"
        },
        {
          "internalType": "string",
          "name": "_gameTokenName",
          "type": "string"
        }
      ],
      "name": "registerPlayer",
      "outputs": [],
      "stateMutability": "nonpayable",
      "type": "function"
    },
    {
      "inputs": [],
      "name": "renounceOwnership",
      "outputs": [],
      "stateMutability": "nonpayable",
      "type": "function"
    },
    {
      "inputs": [
        {
          "internalType": "address",
          "name": "from",
          "type": "address"
        },
        {
          "internalType": "address",
          "name": "to",
          "type": "address"
        },
        {
          "internalType": "uint256[]",
          "name": "ids",
          "type": "uint256[]"
        },
        {
          "internalType": "uint256[]",
          "name": "amounts",
          "type": "uint256[]"
        },
        {
          "internalType": "bytes",
          "name": "data",
          "type": "bytes"
        }
      ],
      "name": "safeBatchTransferFrom",
      "outputs": [],
      "stateMutability": "nonpayable",
      "type": "function"
    },
    {
      "inputs": [
        {
          "internalType": "address",
          "name": "from",
          "type": "address"
        },
        {
          "internalType": "address",
          "name": "to",
          "type": "address"
        },
        {
          "internalType": "uint256",
          "name": "id",
          "type": "uint256"
        },
        {
          "internalType": "uint256",
          "name": "amount",
          "type": "uint256"
        },
        {
          "internalType": "bytes",
          "name": "data",
          "type": "bytes"
        }
      ],
      "name": "safeTransferFrom",
      "outputs": [],
      "stateMutability": "nonpayable",
      "type": "function"
    },
    {
      "inputs": [
        {
          "internalType": "address",
          "name": "operator",
          "type": "address"
        },
        {
          "internalType": "bool",
          "name": "approved",
          "type": "bool"
        }
      ],
      "name": "setApprovalForAll",
      "outputs": [],
      "stateMutability": "nonpayable",
      "type": "function"
    },
    {
      "inputs": [
        {
          "internalType": "string",
          "name": "newuri",
          "type": "string"
        }
      ],
      "name": "setURI",
      "outputs": [],
      "stateMutability": "nonpayable",
      "type": "function"
    },
    {
      "inputs": [
        {
          "internalType": "bytes4",
          "name": "interfaceId",
          "type": "bytes4"
        }
      ],
      "name": "supportsInterface",
      "outputs": [
        {
          "internalType": "bool",
          "name": "",
          "type": "bool"
        }
      ],
      "stateMutability": "view",
      "type": "function"
    },
    {
      "inputs": [
        {
          "internalType": "uint256",
          "name": "tokenId",
          "type": "uint256"
        }
      ],
      "name": "tokenURI",
      "outputs": [
        {
          "internalType": "string",
          "name": "",
          "type": "string"
        }
      ],
      "stateMutability": "view",
      "type": "function"
    },
    {
      "inputs": [],
      "name": "totalSupply",
      "outputs": [
        {
          "internalType": "uint256",
          "name": "",
          "type": "uint256"
        }
      ],
      "stateMutability": "view",
      "type": "function"
    },
    {
      "inputs": [
        {
          "internalType": "uint256",
          "name": "id",
          "type": "uint256"
        }
      ],
      "name": "totalSupply",
      "outputs": [
        {
          "internalType": "uint256",
          "name": "",
          "type": "uint256"
        }
      ],
      "stateMutability": "view",
      "type": "function"
    },
    {
      "inputs": [
        {
          "internalType": "address",
          "name": "newOwner",
          "type": "address"
        }
      ],
      "name": "transferOwnership",
      "outputs": [],
      "stateMutability": "nonpayable",
      "type": "function"
    },
    {
      "inputs": [
        {
          "internalType": "uint256",
          "name": "",
          "type": "uint256"
        }
      ],
      "name": "uri",
      "outputs": [
        {
          "internalType": "string",
          "name": "",
          "type": "string"
        }
      ],
      "stateMutability": "view",
      "type": "function"
    }
  ],
  "bytecode": "0x60806040523480156200001157600080fd5b50604051620056c5380380620056c5833981016040819052620000349162000482565b8062000040816200006c565b506200004c336200007e565b60056200005a8282620005e6565b5062000065620000d0565b50620006c8565b60026200007a8282620005e6565b5050565b600380546001600160a01b038381166001600160a01b0319831681179093556040519116919082907f8be0079c531659141344cd1fd0a4f28419497f9722a3daafe3b4186f6b6457e090600090a35050565b6040805160a08101825260006080820181815282526020820181905291810182905260608101829052600b80546001810182559252805190916004027f0175b7a638427703f0dbe7bb9bbf987a2551717b34e79f33b5b1008d1fa01db9019081906200013d9082620005e6565b506020828101516001838101919091556040808501516002850155606094850151600390940193909355825160a08101845260008082528451808501865281815293820193845293810184905293840183905260808401839052600a8054918201815590925282517fc65a7bb8d6351c1cf70c95a316cc6a92839c986682d98bc35f958f4883f9d2a8600590930292830180546001600160a01b0319166001600160a01b03909216919091178155905190917fc65a7bb8d6351c1cf70c95a316cc6a92839c986682d98bc35f958f4883f9d2a901906200021e9082620005e6565b506040828101516002830155606083015160038301556080909201516004909101805460ff1916911515919091179055805160c08101909152600c90806000815260006020808301829052604080518083018252838152818501528051808201825283815280830184905260608501528051808201909152828152808201839052608084015260a09092018190528354600181810186559482529190208251600790920201805492939092839160ff1990911690836002811115620002e757620002e7620006b2565b021790555060208201516001820155604082015160028201906200030c9082620005e6565b50606082015162000324906003830190600262000368565b5060808201516200033c9060058301906002620003c5565b5060a09190910151600690910180546001600160a01b0319166001600160a01b03909216919091179055565b8260028101928215620003b3579160200282015b82811115620003b357825182546001600160a01b0319166001600160a01b039091161782556020909201916001909101906200037c565b50620003c192915062000455565b5090565b600183019183908215620003b35791602002820160005b838211156200041c57835183826101000a81548160ff021916908360ff1602179055509260200192600101602081600001049283019260010302620003dc565b80156200044b5782816101000a81549060ff02191690556001016020816000010492830192600103026200041c565b5050620003c19291505b5b80821115620003c1576000815560010162000456565b634e487b7160e01b600052604160045260246000fd5b600060208083850312156200049657600080fd5b82516001600160401b0380821115620004ae57600080fd5b818501915085601f830112620004c357600080fd5b815181811115620004d857620004d86200046c565b604051601f8201601f19908116603f011681019083821181831017156200050357620005036200046c565b8160405282815288868487010111156200051c57600080fd5b600093505b8284101562000540578484018601518185018701529285019262000521565b600086848301015280965050505050505092915050565b600181811c908216806200056c57607f821691505b6020821081036200058d57634e487b7160e01b600052602260045260246000fd5b50919050565b601f821115620005e157600081815260208120601f850160051c81016020861015620005bc5750805b601f850160051c820191505b81811015620005dd57828155600101620005c8565b5050505b505050565b81516001600160401b038111156200060257620006026200046c565b6200061a8162000613845462000557565b8462000593565b602080601f831160018114620006525760008415620006395750858301515b600019600386901b1c1916600185901b178555620005dd565b600085815260208120601f198616915b82811015620006835788860151825594840194600190910190840162000662565b5085821015620006a25787850151600019600388901b60f8161c191681555b5050505050600190811b01905550565b634e487b7160e01b600052602160045260246000fd5b614fed80620006d86000396000f3fe608060405234801561001057600080fd5b50600436106102945760003560e01c8063703730a511610167578063bf034b69116100ce578063e985e9c511610087578063e985e9c51461062c578063efa1c48214610668578063f1da73391461067d578063f242432a14610685578063f2fde38b14610698578063f71d96cb146106ab57600080fd5b8063bf034b69146105cb578063bf103a4d146105ee578063c4e41b2214610601578063c87b56dd14610609578063d2198cc51461061c578063de96cefc1461062457600080fd5b80639e4ecd11116101205780639e4ecd11146105575780639ec40aa31461055f578063a1b4f57c14610572578063a22cb46514610585578063ba27495614610598578063bd85b039146105ab57600080fd5b8063703730a5146104de578063715018a6146104e6578063845f433b146104ee5780638da5cb5b14610501578063996d7bea1461051c5780639b09cc871461052f57600080fd5b806318160ddd1161020b5780634e1273f4116101c45780634e1273f41461043c5780634f558e791461045c5780635c12cd4b1461047e5780635c93fc3d1461049e578063606d2e96146104b35780636c0360eb146104d657600080fd5b806318160ddd146103a25780632711162e146103ab5780632ca04522146103cb5780632eb2c2d6146103de5780633835e2b5146103f15780634b1146911461041c57600080fd5b806309c95e101161025d57806309c95e10146103145780630daea2cd146103275780630e89341c1461032f57806310898e4c1461034f5780631107ae3d1461036f57806316801d171461038257600080fd5b8062fdd58e14610299578063015a3792146102bf57806301ffc9a7146102d457806302fe5305146102f75780630677aa4e1461030c575b600080fd5b6102ac6102a7366004614089565b6106cf565b6040519081526020015b60405180910390f35b6102c7610768565b6040516102b69190614142565b6102e76102e23660046141ba565b610877565b60405190151581526020016102b6565b61030a610305366004614293565b6108c7565b005b6102ac600381565b6102e76103223660046142c7565b6108db565b6102ac600a81565b61034261033d3660046142e2565b61090f565b6040516102b691906142fb565b61036261035d3660046142c7565b6109a3565b6040516102b6919061430e565b6102e761037d366004614293565b610b21565b610395610390366004614293565b610b51565b6040516102b69190614415565b6102ac60065481565b6102ac6103b93660046142c7565b60086020526000908152604090205481565b6103956103d9366004614293565b610d6c565b61030a6103ec3660046144bc565b610f92565b6102ac6103ff366004614293565b805160208183018101805160098252928201919093012091525481565b6102ac61042a3660046142c7565b60076020526000908152604090205481565b61044f61044a366004614565565b610fde565b6040516102b6919061466a565b6102e761046a3660046142e2565b600090815260046020526040902054151590565b61049161048c3660046142c7565b611107565b6040516102b691906146d0565b6104a66112ab565b6040516102b691906146e3565b6104c66104c13660046142e2565b611476565b6040516102b69493929190614738565b610342611548565b6102ac600281565b61030a6115d6565b61030a6104fc366004614777565b6115ea565b6003546040516001600160a01b0390911681526020016102b6565b61030a61052a366004614293565b611781565b61054261053d366004614293565b611848565b604080519283526020830191909152016102b6565b6102ac600581565b61030a61056d366004614293565b611872565b610395610580366004614293565b611926565b61030a6105933660046147d0565b611b95565b61030a6105a636600461480c565b611ba0565b6102ac6105b93660046142e2565b60009081526004602052604090205490565b6105de6105d93660046142e2565b611e97565b6040516102b69493929190614857565b6102e76105fc3660046142c7565b611f5f565b6006546102ac565b6103426106173660046142e2565b611f86565b6102ac600081565b6102ac600181565b6102e761063a366004614886565b6001600160a01b03918216600090815260016020908152604080832093909416825291909152205460ff1690565b610670611fba565b6040516102b691906148b9565b6102ac600481565b61030a61069336600461490e565b6120e1565b61030a6106a63660046142c7565b612126565b6106be6106b93660046142e2565b61219c565b6040516102b6959493929190614972565b60006001600160a01b03831661073f5760405162461bcd60e51b815260206004820152602a60248201527f455243313135353a2061646472657373207a65726f206973206e6f742061207660448201526930b634b21037bbb732b960b11b60648201526084015b60405180910390fd5b506000818152602081815260408083206001600160a01b03861684529091529020545b92915050565b6060600b805480602002602001604051908101604052809291908181526020016000905b8282101561086e57838290600052602060002090600402016040518060800160405290816000820180546107bf906149b5565b80601f01602080910402602001604051908101604052809291908181526020018280546107eb906149b5565b80156108385780601f1061080d57610100808354040283529160200191610838565b820191906000526020600020905b81548152906001019060200180831161081b57829003601f168201915b5050505050815260200160018201548152602001600282015481526020016003820154815250508152602001906001019061078c565b50505050905090565b60006001600160e01b03198216636cdb3d1360e11b14806108a857506001600160e01b031982166303a24d0760e21b145b8061076257506301ffc9a760e01b6001600160e01b0319831614610762565b6108cf612275565b6108d8816122cf565b50565b6001600160a01b038116600090815260076020526040812054810361090257506000919050565b506001919050565b919050565b60606002805461091e906149b5565b80601f016020809104026020016040519081016040528092919081815260200182805461094a906149b5565b80156109975780601f1061096c57610100808354040283529160200191610997565b820191906000526020600020905b81548152906001019060200180831161097a57829003601f168201915b50505050509050919050565b6109ce6040518060800160405280606081526020016000815260200160008152602001600081525090565b6109d782611f5f565b610a235760405162461bcd60e51b815260206004820152601960248201527f47616d6520746f6b656e20646f65736e277420657869737421000000000000006044820152606401610736565b6001600160a01b038216600090815260086020526040902054600b80549091908110610a5157610a516149ef565b9060005260206000209060040201604051806080016040529081600082018054610a7a906149b5565b80601f0160208091040260200160405190810160405280929190818152602001828054610aa6906149b5565b8015610af35780601f10610ac857610100808354040283529160200191610af3565b820191906000526020600020905b815481529060010190602001808311610ad657829003601f168201915b5050505050815260200160018201548152602001600282015481526020016003820154815250509050919050565b6000600982604051610b339190614a05565b90815260200160405180910390205460000361090257506000919050565b610b59613f16565b610b6282610b21565b610ba65760405162461bcd60e51b8152602060048201526015602482015274426174746c6520646f65736e27742065786973742160581b6044820152606401610736565b600c600983604051610bb89190614a05565b90815260200160405180910390205481548110610bd757610bd76149ef565b600091825260209091206040805160c081019091526007909202018054829060ff166002811115610c0a57610c0a614321565b6002811115610c1b57610c1b614321565b815260200160018201548152602001600282018054610c39906149b5565b80601f0160208091040260200160405190810160405280929190818152602001828054610c65906149b5565b8015610cb25780601f10610c8757610100808354040283529160200191610cb2565b820191906000526020600020905b815481529060010190602001808311610c9557829003601f168201915b5050509183525050604080518082019182905260209092019190600384019060029082845b81546001600160a01b03168152600190910190602001808311610cd75750505091835250506040805180820191829052602090920191906005840190600290826000855b825461010083900a900460ff16815260206001928301818104948501949093039092029101808411610d1b57505050928452505050600691909101546001600160a01b031660209091015292915050565b610d74613f16565b610d7d336108db565b610dc95760405162461bcd60e51b815260206004820152601c60248201527f506c6561736520526567697374657220506c61796572204669727374000000006044820152606401610736565b610dd282610b21565b15610e185760405162461bcd60e51b8152602060048201526016602482015275426174746c6520616c7265616479206578697374732160501b6044820152606401610736565b600082604051602001610e2b91906142fb565b60408051808303601f19018152828252805160209182012060c084018352600080855282850182905284840188905283518085018552338152808401829052606086015283518085018552818152928301819052608085019290925260a0840191909152600c5491519093508190600990610ea7908890614a05565b90815260405190819003602001902055600c805460018181018355600092909252835160079091027fdf6966c971051c3d54ec59162606531493a51404a002842f56009d7e5cf4a8c70180548593919291839160ff191690836002811115610f1157610f11614321565b02179055506020820151600182015560408201516002820190610f349082614a67565b506060820151610f4a9060038301906002613f59565b506080820151610f609060058301906002613fb1565b5060a09190910151600690910180546001600160a01b0319166001600160a01b03909216919091179055509392505050565b6001600160a01b038516331480610fae5750610fae853361063a565b610fca5760405162461bcd60e51b815260040161073690614b26565b610fd785858585856122db565b5050505050565b606081518351146110435760405162461bcd60e51b815260206004820152602960248201527f455243313135353a206163636f756e747320616e6420696473206c656e677468604482015268040dad2e6dac2e8c6d60bb1b6064820152608401610736565b600083516001600160401b0381111561105e5761105e6141de565b604051908082528060200260200182016040528015611087578160200160208202803683370190505b50905060005b84518110156110ff576110d28582815181106110ab576110ab6149ef565b60200260200101518583815181106110c5576110c56149ef565b60200260200101516106cf565b8282815181106110e4576110e46149ef565b60209081029190910101526110f881614b8a565b905061108d565b509392505050565b6111446040518060a0016040528060006001600160a01b031681526020016060815260200160008152602001600081526020016000151581525090565b61114d826108db565b6111915760405162461bcd60e51b8152602060048201526015602482015274506c6179657220646f65736e27742065786973742160581b6044820152606401610736565b6001600160a01b038216600090815260076020526040902054600a805490919081106111bf576111bf6149ef565b60009182526020918290206040805160a0810190915260059092020180546001600160a01b0316825260018101805492939192918401916111ff906149b5565b80601f016020809104026020016040519081016040528092919081815260200182805461122b906149b5565b80156112785780601f1061124d57610100808354040283529160200191611278565b820191906000526020600020905b81548152906001019060200180831161125b57829003601f168201915b5050509183525050600282015460208201526003820154604082015260049091015460ff16151560609091015292915050565b6060600c805480602002602001604051908101604052809291908181526020016000905b8282101561086e576000848152602090206040805160c08101909152600784029091018054829060ff16600281111561130a5761130a614321565b600281111561131b5761131b614321565b815260200160018201548152602001600282018054611339906149b5565b80601f0160208091040260200160405190810160405280929190818152602001828054611365906149b5565b80156113b25780601f10611387576101008083540402835291602001916113b2565b820191906000526020600020905b81548152906001019060200180831161139557829003601f168201915b5050509183525050604080518082019182905260209092019190600384019060029082845b81546001600160a01b031681526001909101906020018083116113d75750505091835250506040805180820191829052602090920191906005840190600290826000855b825461010083900a900460ff1681526020600192830181810494850194909303909202910180841161141b57505050928452505050600691909101546001600160a01b031660209182015290825260019290920191016112cf565b600c818154811061148657600080fd5b600091825260209091206007909102018054600182015460028301805460ff90931694509092916114b6906149b5565b80601f01602080910402602001604051908101604052809291908181526020018280546114e2906149b5565b801561152f5780601f106115045761010080835404028352916020019161152f565b820191906000526020600020905b81548152906001019060200180831161151257829003601f168201915b505050600690930154919250506001600160a01b031684565b60058054611555906149b5565b80601f0160208091040260200160405190810160405280929190818152602001828054611581906149b5565b80156115ce5780601f106115a3576101008083540402835291602001916115ce565b820191906000526020600020905b8154815290600101906020018083116115b157829003601f168201915b505050505081565b6115de612275565b6115e860006124c6565b565b6115f3336108db565b156116405760405162461bcd60e51b815260206004820152601960248201527f506c6179657220616c72656164792072656769737465726564000000000000006044820152606401610736565b600a80546040805160a08101825233815260208101868152918101849052601960608201526000608082018190526001840185559390935282517fc65a7bb8d6351c1cf70c95a316cc6a92839c986682d98bc35f958f4883f9d2a86005840290810180546001600160a01b0319166001600160a01b03909316929092178255915192939290917fc65a7bb8d6351c1cf70c95a316cc6a92839c986682d98bc35f958f4883f9d2a901906116f39082614a67565b506040828101516002830155606083015160038301556080909201516004909101805460ff191691151591909117905533600090815260076020522081905561173b82611872565b336001600160a01b03167f81ef79d1cda814a60c0fc60792e648a06d9c6bae67176346d1cc8b63030bfccd8460405161177491906142fb565b60405180910390a2505050565b600061178c82610b51565b6060810151519091506001600160a01b03163314806117bb57506060810151602001516001600160a01b031633145b6118075760405162461bcd60e51b815260206004820152601b60248201527f596f7520617265206e6f7420696e207468697320626174746c652100000000006044820152606401610736565b6060810151516001600160a01b031633146118385760608101516118339060005b602002015182612518565b505050565b6060810151611833906001611828565b600080600061185684610b51565b60800151805160209091015160ff918216969116945092505050565b61187b33611107565b60800151156118c45760405162461bcd60e51b8152602060048201526015602482015274506c6179657220697320696e206120626174746c6560581b6044820152606401610736565b6118cd336108db565b6119195760405162461bcd60e51b815260206004820152601c60248201527f506c6561736520526567697374657220506c61796572204669727374000000006044820152606401610736565b611922816127cf565b5050565b61192e613f16565b600061193983610b51565b905060008151600281111561195057611950614321565b1461199d5760405162461bcd60e51b815260206004820152601760248201527f426174746c6520616c72656164792073746172746564210000000000000000006044820152606401610736565b606081015151336001600160a01b0390911603611a065760405162461bcd60e51b815260206004820152602160248201527f4f6e6c7920706c617965722074776f2063616e206a6f696e206120626174746c6044820152606560f81b6064820152608401610736565b611a0f33611107565b6080015115611a545760405162461bcd60e51b8152602060048201526011602482015270416c726561647920696e20626174746c6560781b6044820152606401610736565b60018152606081015133602090910152611a6e83826129da565b6001600a600760008460600151600060028110611a8d57611a8d6149ef565b60200201516001600160a01b03166001600160a01b031681526020019081526020016000205481548110611ac357611ac36149ef565b60009182526020808320600592909202909101600401805460ff19169315159390931790925560608301518201516001600160a01b0316815260079091526040902054600a8054600192908110611b1c57611b1c6149ef565b60009182526020822060059190910201600401805460ff1916921515929092179091556060820151339160200201516001600160a01b03167f024187b16c217a79f8d8e6252b542ec6e278fa91304acd9cfd866f2bbf00bd088360400151604051611b8791906142fb565b60405180910390a392915050565b611922338383612b06565b6000611bab82610b51565b9050600181516002811115611bc257611bc2614321565b14611c3f5760405162461bcd60e51b815260206004820152604160248201527f426174746c65206e6f7420737461727465642e20506c656173652074656c6c2060448201527f616e6f7468657220706c6179657220746f206a6f696e2074686520626174746c6064820152606560f81b608482015260a401610736565b600281516002811115611c5457611c54614321565b03611ca15760405162461bcd60e51b815260206004820152601860248201527f426174746c652068617320616c726561647920656e64656400000000000000006044820152606401610736565b6060810151516001600160a01b0316331480611ccd57506060810151602001516001600160a01b031633145b611d195760405162461bcd60e51b815260206004820152601a60248201527f596f7520617265206e6f7420696e207468697320626174746c650000000000006044820152606401610736565b60808101516060820151516001600160a01b03163314611d3a576001611d3d565b60005b60ff1660028110611d5057611d506149ef565b602002015160ff1615611da55760405162461bcd60e51b815260206004820152601d60248201527f596f75206861766520616c7265616479206d6164652061206d6f7665210000006044820152606401610736565b606081015151611dd2906001600160a01b03163314611dc5576001611dc8565b60005b60ff168484612be6565b611ddb82610b51565b60808101516020015190915060009060ff1615611df9576001611dfc565b60005b60808301515160ff1615611e11576001611e14565b60005b611e1f906002614ba3565b611e299190614ba3565b60ff16905080600114611e3d576000611e40565b60015b151583604051611e509190614a05565b604051908190038120907f54b82b77e7ae55a8e6c9e89deba70c7191dea2a3b08ae647b380e9f981d6a0f890600090a380600003611e9157611e9183612d3b565b50505050565b600b8181548110611ea757600080fd5b9060005260206000209060040201600091509050806000018054611eca906149b5565b80601f0160208091040260200160405190810160405280929190818152602001828054611ef6906149b5565b8015611f435780601f10611f1857610100808354040283529160200191611f43565b820191906000526020600020905b815481529060010190602001808311611f2657829003601f168201915b5050505050908060010154908060020154908060030154905084565b6001600160a01b038116600090815260086020526040812054810361090257506000919050565b60606005611f9383612e55565b604051602001611fa4929190614bbc565b6040516020818303038152906040529050919050565b6060600a805480602002602001604051908101604052809291908181526020016000905b8282101561086e5760008481526020908190206040805160a081019091526005850290910180546001600160a01b031682526001810180549293919291840191612027906149b5565b80601f0160208091040260200160405190810160405280929190818152602001828054612053906149b5565b80156120a05780601f10612075576101008083540402835291602001916120a0565b820191906000526020600020905b81548152906001019060200180831161208357829003601f168201915b505050918352505060028201546020808301919091526003830154604083015260049092015460ff1615156060909101529082526001929092019101611fde565b6001600160a01b0385163314806120fd57506120fd853361063a565b6121195760405162461bcd60e51b815260040161073690614b26565b610fd78585858585612f80565b61212e612275565b6001600160a01b0381166121935760405162461bcd60e51b815260206004820152602660248201527f4f776e61626c653a206e6577206f776e657220697320746865207a65726f206160448201526564647265737360d01b6064820152608401610736565b6108d8816124c6565b600a81815481106121ac57600080fd5b6000918252602090912060059091020180546001820180546001600160a01b039092169350906121db906149b5565b80601f0160208091040260200160405190810160405280929190818152602001828054612207906149b5565b80156122545780601f1061222957610100808354040283529160200191612254565b820191906000526020600020905b81548152906001019060200180831161223757829003601f168201915b50505050600283015460038401546004909401549293909290915060ff1685565b6003546001600160a01b031633146115e85760405162461bcd60e51b815260206004820181905260248201527f4f776e61626c653a2063616c6c6572206973206e6f7420746865206f776e65726044820152606401610736565b60026119228282614a67565b815183511461233d5760405162461bcd60e51b815260206004820152602860248201527f455243313135353a2069647320616e6420616d6f756e7473206c656e677468206044820152670dad2e6dac2e8c6d60c31b6064820152608401610736565b6001600160a01b0384166123635760405162461bcd60e51b815260040161073690614c62565b336123728187878787876130b8565b60005b8451811015612458576000858281518110612392576123926149ef565b6020026020010151905060008583815181106123b0576123b06149ef565b602090810291909101810151600084815280835260408082206001600160a01b038e1683529093529190912054909150818110156124005760405162461bcd60e51b815260040161073690614ca7565b6000838152602081815260408083206001600160a01b038e8116855292528083208585039055908b1682528120805484929061243d908490614cf1565b925050819055505050508061245190614b8a565b9050612375565b50846001600160a01b0316866001600160a01b0316826001600160a01b03167f4a39dc06d4c0dbc64b70af90fd698a233a518aa5d07e595d983b8c0526c8f7fb87876040516124a8929190614d04565b60405180910390a46124be8187878787876130c6565b505050505050565b600380546001600160a01b038381166001600160a01b0319831681179093556040519116919082907f8be0079c531659141344cd1fd0a4f28419497f9722a3daafe3b4186f6b6457e090600090a35050565b612520613f16565b60028251600281111561253557612535614321565b036125795760405162461bcd60e51b815260206004820152601460248201527310985d1d1b1948185b1c9958591e48195b99195960621b6044820152606401610736565b600282526001600160a01b03831660a0830152604082015161259b90836129da565b60006007600084606001516000600281106125b8576125b86149ef565b60200201516001600160a01b03166001600160a01b0316815260200190815260200160002054905060006007600085606001516001600281106125fd576125fd6149ef565b60200201516001600160a01b03166001600160a01b031681526020019081526020016000205490506000600a838154811061263a5761263a6149ef565b906000526020600020906005020160040160006101000a81548160ff0219169083151502179055506019600a8381548110612677576126776149ef565b906000526020600020906005020160030181905550600a8083815481106126a0576126a06149ef565b9060005260206000209060050201600201819055506000600a82815481106126ca576126ca6149ef565b906000526020600020906005020160040160006101000a81548160ff0219169083151502179055506019600a8281548110612707576127076149ef565b906000526020600020906005020160030181905550600a808281548110612730576127306149ef565b60009182526020822060059190910201600201919091556060850151516001600160a01b0387811691161461276a57606085015151612774565b6060850151602001515b9050806001600160a01b0316866001600160a01b03167fae6e5eafb6cd1cb4b139e7a0b9140aa182ee7d50e99f50d660156f79212acbc087604001516040516127bd91906142fb565b60405180910390a35092949350505050565b6127fa6040518060800160405280606081526020016000815260200160008152602001600081525090565b6000612807600a3361322a565b9050600061281682600a614d32565b905060006064423360405160200161284a92919091825260601b6bffffffffffffffffffffffff1916602082015260340190565b6040516020818303038152906040528051906020012060001c61286d9190614d5b565b905061287a600682614d6f565b90508060ff16600003612895578061289181614d91565b9150505b6040805160808101825286815260ff8316602082015290810184905260608101839052600b805460018101825560009190915281518290600483027f0175b7a638427703f0dbe7bb9bbf987a2551717b34e79f33b5b1008d1fa01db9019081906128ff9082614a67565b5060208201518160010155604082015181600201556060820151816003015550508060086000336001600160a01b03166001600160a01b0316815260200190815260200160002081905550612975338460ff1660016040518060400160405280600381526020016203078360ec1b8152506132a8565b6006805490600061298583614b8a565b90915550506040805160ff851681526020810187905290810185905233907fca8ab07e9ed17d119729fc652dd24df9d8430ca862dda4631925b5b4b99da3629060600160405180910390a25095945050505050565b6129e382610b21565b612a265760405162461bcd60e51b815260206004820152601460248201527310985d1d1b1948191bd95cdb89dd08195e1a5cdd60621b6044820152606401610736565b80600c600984604051612a399190614a05565b90815260200160405180910390205481548110612a5857612a586149ef565b6000918252602090912082516007909202018054909190829060ff19166001836002811115612a8957612a89614321565b02179055506020820151600182015560408201516002820190612aac9082614a67565b506060820151612ac29060038301906002613f59565b506080820151612ad89060058301906002613fb1565b5060a09190910151600690910180546001600160a01b0319166001600160a01b039092169190911790555050565b816001600160a01b0316836001600160a01b031603612b795760405162461bcd60e51b815260206004820152602960248201527f455243313135353a2073657474696e6720617070726f76616c20737461747573604482015268103337b91039b2b63360b91b6064820152608401610736565b6001600160a01b03838116600081815260016020908152604080832094871680845294825291829020805460ff191686151590811790915591519182527f17307eab39ab6107e8899845ad3d59bd9653f200f220920489ca2b5937696c31910160405180910390a3505050565b8160ff1660011480612bfb57508160ff166002145b612c475760405162461bcd60e51b815260206004820152601f60248201527f43686f6963652073686f756c64206265206569746865722031206f72203221006044820152606401610736565b8160ff16600114612c59576001612c6b565b6003612c6433611107565b6040015110155b612cc25760405162461bcd60e51b815260206004820152602260248201527f4d616e61206e6f742073756666696369656e7420666f722061747461636b696e604482015261672160f01b6064820152608401610736565b81600c600983604051612cd59190614a05565b90815260200160405180910390205481548110612cf457612cf46149ef565b90600052602060002090600702016005018460028110612d1657612d166149ef565b602091828204019190066101000a81548160ff021916908360ff160217905550505050565b6000612d4682610b51565b6060810151519091506001600160a01b0316331480612d7557506060810151602001516001600160a01b031633145b612dd55760405162461bcd60e51b815260206004820152602b60248201527f4f6e6c7920706c617965727320696e207468697320626174746c652063616e2060448201526a6d616b652061206d6f766560a81b6064820152608401610736565b60808101515160ff1615801590612df6575060808101516020015160ff1615155b612e4c5760405162461bcd60e51b815260206004820152602160248201527f506c6179657273207374696c6c206e65656420746f206d616b652061206d6f766044820152606560f81b6064820152608401610736565b611922816133c2565b606081600003612e7c5750506040805180820190915260018152600360fc1b602082015290565b8160005b8115612ea65780612e9081614b8a565b9150612e9f9050600a83614db0565b9150612e80565b6000816001600160401b03811115612ec057612ec06141de565b6040519080825280601f01601f191660200182016040528015612eea576020820181803683370190505b509050815b8515612f7757612f00600182614d32565b90506000612f0f600a88614db0565b612f1a90600a614dc4565b612f249088614d32565b612f2f906030614de3565b905060008160f81b905080848481518110612f4c57612f4c6149ef565b60200101906001600160f81b031916908160001a905350612f6e600a89614db0565b97505050612eef565b50949350505050565b6001600160a01b038416612fa65760405162461bcd60e51b815260040161073690614c62565b336000612fb285613c97565b90506000612fbf85613c97565b9050612fcf8389898585896130b8565b6000868152602081815260408083206001600160a01b038c168452909152902054858110156130105760405162461bcd60e51b815260040161073690614ca7565b6000878152602081815260408083206001600160a01b038d8116855292528083208985039055908a1682528120805488929061304d908490614cf1565b909155505060408051888152602081018890526001600160a01b03808b16928c821692918816917fc3d58168c5ae7397731d063d5bbf3d657854427343f4c083240f7aacaa2d0f62910160405180910390a46130ad848a8a8a8a8a613ce2565b505050505050505050565b6124be868686868686613d9d565b6001600160a01b0384163b156124be5760405163bc197c8160e01b81526001600160a01b0385169063bc197c819061310a9089908990889088908890600401614dfc565b6020604051808303816000875af1925050508015613145575060408051601f3d908101601f1916820190925261314291810190614e5a565b60015b6131f157613151614e77565b806308c379a00361318a5750613165614e93565b80613170575061318c565b8060405162461bcd60e51b815260040161073691906142fb565b505b60405162461bcd60e51b815260206004820152603460248201527f455243313135353a207472616e7366657220746f206e6f6e2d455243313135356044820152732932b1b2b4bb32b91034b6b83632b6b2b73a32b960611b6064820152608401610736565b6001600160e01b0319811663bc197c8160e01b146132215760405162461bcd60e51b815260040161073690614f1c565b50505050505050565b60008044428460405160200161326593929190928352602083019190915260601b6bffffffffffffffffffffffff1916604082015260540190565b60408051601f19818403018152919052805160209091012090506132898482614d5b565b9150816000036132a15761329e600285614db0565b91505b5092915050565b6001600160a01b0384166133085760405162461bcd60e51b815260206004820152602160248201527f455243313135353a206d696e7420746f20746865207a65726f206164647265736044820152607360f81b6064820152608401610736565b33600061331485613c97565b9050600061332185613c97565b9050613332836000898585896130b8565b6000868152602081815260408083206001600160a01b038b16845290915281208054879290613362908490614cf1565b909155505060408051878152602081018790526001600160a01b03808a1692600092918716917fc3d58168c5ae7397731d063d5bbf3d657854427343f4c083240f7aacaa2d0f62910160405180910390a461322183600089898989613ce2565b60006040518060a001604052806007600085606001516000600281106133ea576133ea6149ef565b60200201516001600160a01b03166001600160a01b03168152602001908152602001600020548152602001836080015160006002811061342c5761342c6149ef565b602002015160ff16815260200161345d8460600151600060028110613453576134536149ef565b6020020151611107565b60600151815260200161348a8460600151600060028110613480576134806149ef565b60200201516109a3565b6040015181526020016134ad8460600151600060028110613480576134806149ef565b60600151815250905060006040518060a001604052806007600086606001516001600281106134de576134de6149ef565b60200201516001600160a01b03166001600160a01b031681526020019081526020016000205481526020018460800151600160028110613520576135206149ef565b602002015160ff1681526020016135478560600151600160028110613453576134536149ef565b60600151815260200161356a8560600151600160028110613480576134806149ef565b60400151815260200161358d8560600151600160028110613480576134806149ef565b6060015190526040805180820190915260008082526020808301919091528401519192509060011480156135c5575081602001516001145b1561371c5781604001518360600151106135f65760608401516135f09060005b602002015185612518565b50613a37565b82604001518260600151106136155760608401516135f09060016135e5565b8160600151600a846000015181548110613631576136316149ef565b906000526020600020906005020160030160008282546136519190614d32565b909155505060608301518251600a80549091908110613672576136726149ef565b906000526020600020906005020160030160008282546136929190614d32565b90915550508251600a80546003929081106136af576136af6149ef565b906000526020600020906005020160020160008282546136cf9190614d32565b90915550508151600a80546003929081106136ec576136ec6149ef565b9060005260206000209060050201600201600082825461370c9190614d32565b9091555050506060830151613a37565b82602001516001148015613734575081602001516002145b1561386b5760008260800151836040015161374f9190614cf1565b9050808460600151106137795760608501516137739060005b602002015186612518565b506135f0565b6000846060015184608001511115613796575060408301516137bc565b60608501516137a59083614d32565b6060870151602001516001600160a01b0316845290505b80600a8560000151815481106137d4576137d46149ef565b9060005260206000209060050201600301819055506003600a866000015181548110613802576138026149ef565b906000526020600020906005020160020160008282546138229190614d32565b90915550508351600a805460039290811061383f5761383f6149ef565b9060005260206000209060050201600201600082825461385f9190614cf1565b90915550505050613a37565b82602001516002148015613883575081602001516001145b1561399e5760008360800151846040015161389e9190614cf1565b9050808360600151106138bb576060850151613773906001613768565b60008360600151856080015111156138d8575060408401516138fb565b60608401516138e79083614d32565b6060870151516001600160a01b0316845290505b80600a866000015181548110613913576139136149ef565b9060005260206000209060050201600301819055506003600a866000015181548110613941576139416149ef565b906000526020600020906005020160020160008282546139619190614cf1565b90915550508351600a805460039290811061397e5761397e6149ef565b9060005260206000209060050201600201600082825461385f9190614d32565b826020015160021480156139b6575081602001516002145b15613a37576003600a8460000151815481106139d4576139d46149ef565b906000526020600020906005020160020160008282546139f49190614cf1565b90915550508151600a8054600392908110613a1157613a116149ef565b90600052602060002090600502016002016000828254613a319190614cf1565b90915550505b7fc6bf860cbc15f7020f73993a671f01bbb1831a8a7a12c126ca735eb632e7577581604051613a669190614f64565b60405180910390a16080840180516000908190529051602001526040840151613a8f90856129da565b6000613ab7600a8660600151600060028110613aad57613aad6149ef565b602002015161322a565b905080600b600860008860600151600060028110613ad757613ad76149ef565b60200201516001600160a01b03166001600160a01b031681526020019081526020016000205481548110613b0d57613b0d6149ef565b6000918252602090912060026004909202010155613b2c81600a614d32565b600b600860008860600151600060028110613b4957613b496149ef565b60200201516001600160a01b03166001600160a01b031681526020019081526020016000205481548110613b7f57613b7f6149ef565b9060005260206000209060040201600301819055506000613bb2600a8760600151600160028110613aad57613aad6149ef565b905080600b600860008960600151600160028110613bd257613bd26149ef565b60200201516001600160a01b03166001600160a01b031681526020019081526020016000205481548110613c0857613c086149ef565b6000918252602090912060026004909202010155613c2781600a614d32565b600b600860008960600151600160028110613c4457613c446149ef565b60200201516001600160a01b03166001600160a01b031681526020019081526020016000205481548110613c7a57613c7a6149ef565b906000526020600020906004020160030181905550505050505050565b60408051600180825281830190925260609160009190602080830190803683370190505090508281600081518110613cd157613cd16149ef565b602090810291909101015292915050565b6001600160a01b0384163b156124be5760405163f23a6e6160e01b81526001600160a01b0385169063f23a6e6190613d269089908990889088908890600401614f72565b6020604051808303816000875af1925050508015613d61575060408051601f3d908101601f19168201909252613d5e91810190614e5a565b60015b613d6d57613151614e77565b6001600160e01b0319811663f23a6e6160e01b146132215760405162461bcd60e51b815260040161073690614f1c565b6001600160a01b038516613e245760005b8351811015613e2257828181518110613dc957613dc96149ef565b602002602001015160046000868481518110613de757613de76149ef565b602002602001015181526020019081526020016000206000828254613e0c9190614cf1565b90915550613e1b905081614b8a565b9050613dae565b505b6001600160a01b0384166124be5760005b8351811015613221576000848281518110613e5257613e526149ef565b602002602001015190506000848381518110613e7057613e706149ef565b6020026020010151905060006004600084815260200190815260200160002054905081811015613ef35760405162461bcd60e51b815260206004820152602860248201527f455243313135353a206275726e20616d6f756e74206578636565647320746f74604482015267616c537570706c7960c01b6064820152608401610736565b60009283526004602052604090922091039055613f0f81614b8a565b9050613e35565b6040805160c0810190915280600081526000602082015260606040820181905201613f3f61403f565b8152602001613f4c61403f565b8152600060209091015290565b8260028101928215613fa1579160200282015b82811115613fa157825182546001600160a01b0319166001600160a01b03909116178255602090920191600190910190613f6c565b50613fad92915061405d565b5090565b600183019183908215613fa15791602002820160005b8382111561400557835183826101000a81548160ff021916908360ff1602179055509260200192600101602081600001049283019260010302613fc7565b80156140325782816101000a81549060ff0219169055600101602081600001049283019260010302614005565b5050613fad92915061405d565b60405180604001604052806002906020820280368337509192915050565b5b80821115613fad576000815560010161405e565b80356001600160a01b038116811461090a57600080fd5b6000806040838503121561409c57600080fd5b6140a583614072565b946020939093013593505050565b60005b838110156140ce5781810151838201526020016140b6565b50506000910152565b600081518084526140ef8160208601602086016140b3565b601f01601f19169290920160200192915050565b600081516080845261411860808501826140d7565b90506020830151602085015260408301516040850152606083015160608501528091505092915050565b6000602080830181845280855180835260408601915060408160051b870101925083870160005b8281101561419757603f19888603018452614185858351614103565b94509285019290850190600101614169565b5092979650505050505050565b6001600160e01b0319811681146108d857600080fd5b6000602082840312156141cc57600080fd5b81356141d7816141a4565b9392505050565b634e487b7160e01b600052604160045260246000fd5b601f8201601f191681016001600160401b0381118282101715614219576142196141de565b6040525050565b600082601f83011261423157600080fd5b81356001600160401b0381111561424a5761424a6141de565b604051614261601f8301601f1916602001826141f4565b81815284602083860101111561427657600080fd5b816020850160208301376000918101602001919091529392505050565b6000602082840312156142a557600080fd5b81356001600160401b038111156142bb57600080fd5b61329e84828501614220565b6000602082840312156142d957600080fd5b6141d782614072565b6000602082840312156142f457600080fd5b5035919050565b6020815260006141d760208301846140d7565b6020815260006141d76020830184614103565b634e487b7160e01b600052602160045260246000fd5b6003811061435557634e487b7160e01b600052602160045260246000fd5b9052565b8060005b6002811015611e915781516001600160a01b031684526020938401939091019060010161435d565b6000610100614395848451614337565b6020808401518186015260408401518260408701526143b6838701826140d7565b92505060608401516143cb6060870182614359565b50608084015160a0860160005b60028110156143f857825160ff16825291830191908301906001016143d8565b5050505060a08301516001600160a01b03811660e08601526110ff565b6020815260006141d76020830184614385565b60006001600160401b03821115614441576144416141de565b5060051b60200190565b600082601f83011261445c57600080fd5b8135602061446982614428565b60405161447682826141f4565b83815260059390931b850182019282810191508684111561449657600080fd5b8286015b848110156144b1578035835291830191830161449a565b509695505050505050565b600080600080600060a086880312156144d457600080fd5b6144dd86614072565b94506144eb60208701614072565b935060408601356001600160401b038082111561450757600080fd5b61451389838a0161444b565b9450606088013591508082111561452957600080fd5b61453589838a0161444b565b9350608088013591508082111561454b57600080fd5b5061455888828901614220565b9150509295509295909350565b6000806040838503121561457857600080fd5b82356001600160401b038082111561458f57600080fd5b818501915085601f8301126145a357600080fd5b813560206145b082614428565b6040516145bd82826141f4565b83815260059390931b85018201928281019150898411156145dd57600080fd5b948201945b83861015614602576145f386614072565b825294820194908201906145e2565b9650508601359250508082111561461857600080fd5b506146258582860161444b565b9150509250929050565b600081518084526020808501945080840160005b8381101561465f57815187529582019590820190600101614643565b509495945050505050565b6020815260006141d7602083018461462f565b60018060a01b0381511682526000602082015160a060208501526146a460a08501826140d7565b905060408301516040850152606083015160608501526080830151151560808501528091505092915050565b6020815260006141d7602083018461467d565b6000602080830181845280855180835260408601915060408160051b870101925083870160005b8281101561419757603f19888603018452614726858351614385565b9450928501929085019060010161470a565b6147428186614337565b83602082015260806040820152600061475e60808301856140d7565b905060018060a01b038316606083015295945050505050565b6000806040838503121561478a57600080fd5b82356001600160401b03808211156147a157600080fd5b6147ad86838701614220565b935060208501359150808211156147c357600080fd5b5061462585828601614220565b600080604083850312156147e357600080fd5b6147ec83614072565b91506020830135801515811461480157600080fd5b809150509250929050565b6000806040838503121561481f57600080fd5b823560ff8116811461483057600080fd5b915060208301356001600160401b0381111561484b57600080fd5b61462585828601614220565b60808152600061486a60808301876140d7565b6020830195909552506040810192909252606090910152919050565b6000806040838503121561489957600080fd5b6148a283614072565b91506148b060208401614072565b90509250929050565b6000602080830181845280855180835260408601915060408160051b870101925083870160005b8281101561419757603f198886030184526148fc85835161467d565b945092850192908501906001016148e0565b600080600080600060a0868803121561492657600080fd5b61492f86614072565b945061493d60208701614072565b9350604086013592506060860135915060808601356001600160401b0381111561496657600080fd5b61455888828901614220565b6001600160a01b038616815260a060208201819052600090614996908301876140d7565b6040830195909552506060810192909252151560809091015292915050565b600181811c908216806149c957607f821691505b6020821081036149e957634e487b7160e01b600052602260045260246000fd5b50919050565b634e487b7160e01b600052603260045260246000fd5b60008251614a178184602087016140b3565b9190910192915050565b601f82111561183357600081815260208120601f850160051c81016020861015614a485750805b601f850160051c820191505b818110156124be57828155600101614a54565b81516001600160401b03811115614a8057614a806141de565b614a9481614a8e84546149b5565b84614a21565b602080601f831160018114614ac95760008415614ab15750858301515b600019600386901b1c1916600185901b1785556124be565b600085815260208120601f198616915b82811015614af857888601518255948401946001909101908401614ad9565b5085821015614b165787850151600019600388901b60f8161c191681555b5050505050600190811b01905550565b6020808252602e908201527f455243313135353a2063616c6c6572206973206e6f7420746f6b656e206f776e60408201526d195c881bdc88185c1c1c9bdd995960921b606082015260800190565b634e487b7160e01b600052601160045260246000fd5b600060018201614b9c57614b9c614b74565b5060010190565b60ff828116828216039081111561076257610762614b74565b6000808454614bca816149b5565b60018281168015614be25760018114614bf757614c26565b60ff1984168752821515830287019450614c26565b8860005260208060002060005b85811015614c1d5781548a820152908401908201614c04565b50505082870194505b50602f60f81b845286519250614c428382860160208a016140b3565b64173539b7b760d91b939092019182019290925260060195945050505050565b60208082526025908201527f455243313135353a207472616e7366657220746f20746865207a65726f206164604082015264647265737360d81b606082015260800190565b6020808252602a908201527f455243313135353a20696e73756666696369656e742062616c616e636520666f60408201526939103a3930b739b332b960b11b606082015260800190565b8082018082111561076257610762614b74565b604081526000614d17604083018561462f565b8281036020840152614d29818561462f565b95945050505050565b8181038181111561076257610762614b74565b634e487b7160e01b600052601260045260246000fd5b600082614d6a57614d6a614d45565b500690565b600060ff831680614d8257614d82614d45565b8060ff84160691505092915050565b600060ff821660ff8103614da757614da7614b74565b60010192915050565b600082614dbf57614dbf614d45565b500490565b6000816000190483118215151615614dde57614dde614b74565b500290565b60ff818116838216019081111561076257610762614b74565b6001600160a01b0386811682528516602082015260a060408201819052600090614e289083018661462f565b8281036060840152614e3a818661462f565b90508281036080840152614e4e81856140d7565b98975050505050505050565b600060208284031215614e6c57600080fd5b81516141d7816141a4565b600060033d1115614e905760046000803e5060005160e01c5b90565b600060443d1015614ea15790565b6040516003193d81016004833e81513d6001600160401b038160248401118184111715614ed057505050505090565b8285019150815181811115614ee85750505050505090565b843d8701016020828501011115614f025750505050505090565b614f11602082860101876141f4565b509095945050505050565b60208082526028908201527f455243313135353a204552433131353552656365697665722072656a656374656040820152676420746f6b656e7360c01b606082015260800190565b604081016107628284614359565b6001600160a01b03868116825285166020820152604081018490526060810183905260a060808201819052600090614fac908301846140d7565b97965050505050505056fea2646970667358221220c6750cab93e0883a6defdf35f6ee522a3800de90d1e88904e917bbd4534730e964736f6c63430008100033",
  "linkReferences": {},
  "deployedLinkReferences": {}
}